{
  "contractName": "Voting",
  "abi": [
    {
      "inputs": [],
      "stateMutability": "nonpayable",
      "type": "constructor"
    },
    {
      "anonymous": false,
      "inputs": [],
      "name": "NewMovie",
      "type": "event"
    },
    {
      "anonymous": false,
      "inputs": [],
      "name": "Voted",
      "type": "event"
    },
    {
      "inputs": [],
      "name": "MAX_VOTES_PER_VOTER",
      "outputs": [
        {
          "internalType": "uint256",
          "name": "",
          "type": "uint256"
        }
      ],
      "stateMutability": "view",
      "type": "function",
      "constant": true
    },
    {
      "inputs": [
        {
          "internalType": "uint256",
          "name": "",
          "type": "uint256"
        }
      ],
      "name": "movies",
      "outputs": [
        {
          "internalType": "uint256",
          "name": "id",
          "type": "uint256"
        },
        {
          "internalType": "string",
          "name": "title",
          "type": "string"
        },
        {
          "internalType": "string",
          "name": "cover",
          "type": "string"
        },
        {
          "internalType": "uint256",
          "name": "votes",
          "type": "uint256"
        }
      ],
      "stateMutability": "view",
      "type": "function",
      "constant": true
    },
    {
      "inputs": [],
      "name": "moviesCount",
      "outputs": [
        {
          "internalType": "uint256",
          "name": "",
          "type": "uint256"
        }
      ],
      "stateMutability": "view",
      "type": "function",
      "constant": true
    },
    {
      "inputs": [
        {
          "internalType": "address",
          "name": "",
          "type": "address"
        }
      ],
      "name": "votes",
      "outputs": [
        {
          "internalType": "uint256",
          "name": "",
          "type": "uint256"
        }
      ],
      "stateMutability": "view",
      "type": "function",
      "constant": true
    },
    {
      "inputs": [
        {
          "internalType": "uint256",
          "name": "_movieID",
          "type": "uint256"
        }
      ],
      "name": "vote",
      "outputs": [],
      "stateMutability": "nonpayable",
      "type": "function"
    },
    {
      "inputs": [
        {
          "internalType": "string",
          "name": "_title",
          "type": "string"
        },
        {
          "internalType": "string",
          "name": "_cover",
          "type": "string"
        }
      ],
      "name": "addMovie",
      "outputs": [],
      "stateMutability": "nonpayable",
      "type": "function"
    }
  ],
  "bytecode": "0x608060405234801561001057600080fd5b506000600181905550610d16806100286000396000f3fe608060405234801561001057600080fd5b50600436106100625760003560e01c80630121b93f1461006757806308bbbc9c14610083578063404ebf6c146100a1578063416cef3e146100d4578063967a8be4146100f2578063d8bff5a51461010e575b600080fd5b610081600480360381019061007c9190610541565b61013e565b005b61008b6102c0565b604051610098919061057d565b60405180910390f35b6100bb60048036038101906100b69190610541565b6102c6565b6040516100cb9493929190610628565b60405180910390f35b6100dc610406565b6040516100e9919061057d565b60405180910390f35b61010c600480360381019061010791906107b0565b61040b565b005b61012860048036038101906101239190610886565b6104df565b604051610135919061057d565b60405180910390f35b6003600260003373ffffffffffffffffffffffffffffffffffffffff1673ffffffffffffffffffffffffffffffffffffffff16815260200190815260200160002054106101c0576040517f08c379a00000000000000000000000000000000000000000000000000000000081526004016101b7906108ff565b60405180910390fd5b6000811180156101d257506001548111155b610211576040517f08c379a00000000000000000000000000000000000000000000000000000000081526004016102089061096b565b60405180910390fd5b600260003373ffffffffffffffffffffffffffffffffffffffff1673ffffffffffffffffffffffffffffffffffffffff1681526020019081526020016000206000815480929190610261906109ba565b9190505550600080828152602001908152602001600020600301600081548092919061028c906109ba565b91905055507f650d798f3862ff92822acb5de11a760351b122df0cf4e24ef80b0a7ff82e0eb960405160405180910390a150565b60015481565b60006020528060005260406000206000915090508060000154908060010180546102ef90610a31565b80601f016020809104026020016040519081016040528092919081815260200182805461031b90610a31565b80156103685780601f1061033d57610100808354040283529160200191610368565b820191906000526020600020905b81548152906001019060200180831161034b57829003601f168201915b50505050509080600201805461037d90610a31565b80601f01602080910402602001604051908101604052809291908181526020018280546103a990610a31565b80156103f65780601f106103cb576101008083540402835291602001916103f6565b820191906000526020600020905b8154815290600101906020018083116103d957829003601f168201915b5050505050908060030154905084565b600381565b6001600081548092919061041e906109ba565b91905055506000604051806080016040528060015481526020018481526020018381526020016000815250905080600080600154815260200190815260200160002060008201518160000155602082015181600101908161047f9190610c0e565b5060408201518160020190816104959190610c0e565b50606082015181600301559050507f7d86abd6b4195402762acf6a4927ce5cc913d7249e3668f8f3924983b210a3e060405160405180910390a16104da60015461013e565b505050565b60026020528060005260406000206000915090505481565b6000604051905090565b600080fd5b600080fd5b6000819050919050565b61051e8161050b565b811461052957600080fd5b50565b60008135905061053b81610515565b92915050565b60006020828403121561055757610556610501565b5b60006105658482850161052c565b91505092915050565b6105778161050b565b82525050565b6000602082019050610592600083018461056e565b92915050565b600081519050919050565b600082825260208201905092915050565b60005b838110156105d25780820151818401526020810190506105b7565b60008484015250505050565b6000601f19601f8301169050919050565b60006105fa82610598565b61060481856105a3565b93506106148185602086016105b4565b61061d816105de565b840191505092915050565b600060808201905061063d600083018761056e565b818103602083015261064f81866105ef565b9050818103604083015261066381856105ef565b9050610672606083018461056e565b95945050505050565b600080fd5b600080fd5b7f4e487b7100000000000000000000000000000000000000000000000000000000600052604160045260246000fd5b6106bd826105de565b810181811067ffffffffffffffff821117156106dc576106db610685565b5b80604052505050565b60006106ef6104f7565b90506106fb82826106b4565b919050565b600067ffffffffffffffff82111561071b5761071a610685565b5b610724826105de565b9050602081019050919050565b82818337600083830152505050565b600061075361074e84610700565b6106e5565b90508281526020810184848401111561076f5761076e610680565b5b61077a848285610731565b509392505050565b600082601f8301126107975761079661067b565b5b81356107a7848260208601610740565b91505092915050565b600080604083850312156107c7576107c6610501565b5b600083013567ffffffffffffffff8111156107e5576107e4610506565b5b6107f185828601610782565b925050602083013567ffffffffffffffff81111561081257610811610506565b5b61081e85828601610782565b9150509250929050565b600073ffffffffffffffffffffffffffffffffffffffff82169050919050565b600061085382610828565b9050919050565b61086381610848565b811461086e57600080fd5b50565b6000813590506108808161085a565b92915050565b60006020828403121561089c5761089b610501565b5b60006108aa84828501610871565b91505092915050565b7f566f74657220686173206e6f20766f746573206c6566742e0000000000000000600082015250565b60006108e96018836105a3565b91506108f4826108b3565b602082019050919050565b60006020820190508181036000830152610918816108dc565b9050919050565b7f4d6f766965204944206973206f7574206f662072616e67652e00000000000000600082015250565b60006109556019836105a3565b91506109608261091f565b602082019050919050565b6000602082019050818103600083015261098481610948565b9050919050565b7f4e487b7100000000000000000000000000000000000000000000000000000000600052601160045260246000fd5b60006109c58261050b565b91507fffffffffffffffffffffffffffffffffffffffffffffffffffffffffffffffff82036109f7576109f661098b565b5b600182019050919050565b7f4e487b7100000000000000000000000000000000000000000000000000000000600052602260045260246000fd5b60006002820490506001821680610a4957607f821691505b602082108103610a5c57610a5b610a02565b5b50919050565b60008190508160005260206000209050919050565b60006020601f8301049050919050565b600082821b905092915050565b600060088302610ac47fffffffffffffffffffffffffffffffffffffffffffffffffffffffffffffffff82610a87565b610ace8683610a87565b95508019841693508086168417925050509392505050565b6000819050919050565b6000610b0b610b06610b018461050b565b610ae6565b61050b565b9050919050565b6000819050919050565b610b2583610af0565b610b39610b3182610b12565b848454610a94565b825550505050565b600090565b610b4e610b41565b610b59818484610b1c565b505050565b5b81811015610b7d57610b72600082610b46565b600181019050610b5f565b5050565b601f821115610bc257610b9381610a62565b610b9c84610a77565b81016020851015610bab578190505b610bbf610bb785610a77565b830182610b5e565b50505b505050565b600082821c905092915050565b6000610be560001984600802610bc7565b1980831691505092915050565b6000610bfe8383610bd4565b9150826002028217905092915050565b610c1782610598565b67ffffffffffffffff811115610c3057610c2f610685565b5b610c3a8254610a31565b610c45828285610b81565b600060209050601f831160018114610c785760008415610c66578287015190505b610c708582610bf2565b865550610cd8565b601f198416610c8686610a62565b60005b82811015610cae57848901518255600182019150602085019450602081019050610c89565b86831015610ccb5784890151610cc7601f891682610bd4565b8355505b6001600288020188555050505b50505050505056fea2646970667358221220cdcf8a0a1887fa892a3f6122cc2d5f014f10b3681531aaaee53fe6e188c7f2b864736f6c63430008100033",
  "immutableReferences": {},
  "source": "// SPDX-License-Identifier: MIT\r\npragma solidity >=0.4.22 <0.9.0;\r\n\r\ncontract Voting {\r\n    uint256 public constant MAX_VOTES_PER_VOTER = 3;\r\n\r\n    struct Movie {\r\n        uint256 id;\r\n        string title;\r\n        string cover;\r\n        uint256 votes;\r\n    }\r\n    event Voted();\r\n    event NewMovie();\r\n\r\n    mapping(uint256 => Movie) public movies;\r\n    uint256 public moviesCount;\r\n\r\n    mapping(address => uint256) public votes;\r\n\r\n    constructor() {\r\n        moviesCount = 0;\r\n    }\r\n\r\n    function vote(uint256 _movieID) public {\r\n        require(\r\n            votes[msg.sender] < MAX_VOTES_PER_VOTER,\r\n            \"Voter has no votes left.\"\r\n        );\r\n        require(\r\n            _movieID > 0 && _movieID <= moviesCount,\r\n            \"Movie ID is out of range.\"\r\n        );\r\n\r\n        votes[msg.sender]++;\r\n        movies[_movieID].votes++;\r\n\r\n        emit Voted();\r\n    }\r\n\r\n    function addMovie(string memory _title, string memory _cover) public {\r\n        moviesCount++;\r\n\r\n        Movie memory movie = Movie(moviesCount, _title, _cover, 0);\r\n        movies[moviesCount] = movie;\r\n\r\n        emit NewMovie();\r\n        vote(moviesCount);\r\n    }\r\n}\r\n",
  "sourcePath": "C:\\Users\\koray\\Documents\\Master 2 - SU\\BLOCKCHAIN\\Projet_vote_blockchain\\movie-vote\\contracts\\Voting.sol",
  "compiler": {
    "name": "solc",
    "version": "0.8.16+commit.07a7930e.Emscripten.clang"
  },
  "schemaVersion": "3.4.10",
  "updatedAt": "2022-09-15T07:21:13.742Z",
  "networkType": "ethereum",
  "devdoc": {
    "kind": "dev",
    "methods": {},
    "version": 1
  },
  "userdoc": {
    "kind": "user",
    "methods": {},
    "version": 1
  }
}